{
  "contractName": "Lottery",
  "abi": [
    {
      "constant": true,
      "inputs": [],
      "name": "manager",
      "outputs": [
        {
          "name": "",
          "type": "address"
        }
      ],
      "payable": false,
      "stateMutability": "view",
      "type": "function"
    },
    {
      "constant": true,
      "inputs": [
        {
          "name": "",
          "type": "uint256"
        }
      ],
      "name": "players",
      "outputs": [
        {
          "name": "",
          "type": "address"
        }
      ],
      "payable": false,
      "stateMutability": "view",
      "type": "function"
    },
    {
      "inputs": [],
      "payable": false,
      "stateMutability": "nonpayable",
      "type": "constructor"
    },
    {
      "constant": false,
      "inputs": [],
      "name": "enter",
      "outputs": [],
      "payable": true,
      "stateMutability": "payable",
      "type": "function"
    },
    {
      "constant": true,
      "inputs": [],
      "name": "random",
      "outputs": [
        {
          "name": "",
          "type": "uint256"
        }
      ],
      "payable": false,
      "stateMutability": "view",
      "type": "function"
    },
    {
      "constant": true,
      "inputs": [],
      "name": "getPlayersCount",
      "outputs": [
        {
          "name": "",
          "type": "uint256"
        }
      ],
      "payable": false,
      "stateMutability": "view",
      "type": "function"
    },
    {
      "constant": false,
      "inputs": [],
      "name": "pickWinner",
      "outputs": [],
      "payable": false,
      "stateMutability": "nonpayable",
      "type": "function"
    }
  ],
  "bytecode": "0x608060405234801561001057600080fd5b50336000806101000a81548173ffffffffffffffffffffffffffffffffffffffff021916908373ffffffffffffffffffffffffffffffffffffffff1602179055506104e6806100606000396000f3fe608060405260043610610078576000357c0100000000000000000000000000000000000000000000000000000000900463ffffffff168063481c6a751461007d5780635d495aea146100d45780635ec01e4d146100eb578063a76594bf14610116578063e97dcb6214610141578063f71d96cb1461014b575b600080fd5b34801561008957600080fd5b506100926101c6565b604051808273ffffffffffffffffffffffffffffffffffffffff1673ffffffffffffffffffffffffffffffffffffffff16815260200191505060405180910390f35b3480156100e057600080fd5b506100e96101eb565b005b3480156100f757600080fd5b506101006102a0565b6040518082815260200191505060405180910390f35b34801561012257600080fd5b5061012b610343565b6040518082815260200191505060405180910390f35b610149610350565b005b34801561015757600080fd5b506101846004803603602081101561016e57600080fd5b8101908080359060200190929190505050610436565b604051808273ffffffffffffffffffffffffffffffffffffffff1673ffffffffffffffffffffffffffffffffffffffff16815260200191505060405180910390f35b6000809054906101000a900473ffffffffffffffffffffffffffffffffffffffff1681565b60006001805490506101fb6102a0565b81151561020457fe5b06905060018181548110151561021657fe5b9060005260206000200160009054906101000a900473ffffffffffffffffffffffffffffffffffffffff1673ffffffffffffffffffffffffffffffffffffffff166108fc670de0b6b3a76400009081150290604051600060405180830381858888f1935050505015801561028e573d6000803e3d6000fd5b506001600061029d9190610474565b50565b60004442600160405160200180848152602001838152602001828054801561031d57602002820191906000526020600020905b8160009054906101000a900473ffffffffffffffffffffffffffffffffffffffff1673ffffffffffffffffffffffffffffffffffffffff16815260200190600101908083116102d3575b505093505050506040516020818303038152906040528051906020012060019004905090565b6000600180549050905090565b662386f26fc10000341115156103ce576040517f08c379a00000000000000000000000000000000000000000000000000000000081526004018080602001828103825260198152602001807f6d757374206d616b6520616e20656c696769626c65206265740000000000000081525060200191505060405180910390fd5b60013390806001815401808255809150509060018203906000526020600020016000909192909190916101000a81548173ffffffffffffffffffffffffffffffffffffffff021916908373ffffffffffffffffffffffffffffffffffffffff16021790555050565b60018181548110151561044557fe5b906000526020600020016000915054906101000a900473ffffffffffffffffffffffffffffffffffffffff1681565b50805460008255906000526020600020908101906104929190610495565b50565b6104b791905b808211156104b357600081600090555060010161049b565b5090565b9056fea165627a7a72305820a5da5885e6640e271280c6c8e2c1a4e1fd7bc3e1b9c6367561284045ab346b750029",
  "source": "pragma solidity ^0.5.0;\n\n\ncontract Lottery{\n    address public manager;\n    address payable[] public players;\n\n    constructor()public {\n        manager = msg.sender;\n    }\n\n    function enter()public payable {\n        require(msg.value > .01 ether, 'must make an eligible bet');\n        players.push(msg.sender);\n    }\n\n    function random() public view returns(uint){\n      return uint(keccak256(abi.encodePacked(block.difficulty, now, players)));\n    }\n\n    function getPlayersCount() public view returns(uint){\n        return players.length;\n    }\n\n    function pickWinner() public{\n        uint index = random() % players.length;\n        players[index].transfer(1 ether);\n       delete players;\n    }\n\n}",
  "sourcePath": "/Users/lafountain/Desktop/BitCoin Inc./BasicLotteryContract/contracts/Lottery.sol",
  "compiler": {
    "name": "solc",
    "version": "0.5.0+commit.1d4f565a.Emscripten.clang"
  },
  "schemaVersion": "3.0.9",
  "updatedAt": "2019-06-20T23:10:57.976Z",
  "devdoc": {
    "methods": {}
  },
  "userdoc": {
    "methods": {}
  }
}